:020000040800F2
:10000000380A0020C90000082130000885210008B6
:1000100000000000000000000000000000000000E0
:100020000000000000000000000000002530000873
:100030000000000000000000233000082730000806
:10004000DB00000800000000DB000008DB00000807
:10005000DB000008DB000008DB000008DB00000814
:1000600000000000D1050008DB000008DB000008EC
:10007000A1040008DB000008DB000008000000000D
:10008000DB0000080000000000000000AD300008A8
:1000900000000000DB000008DB00000889210008E8
:1000A00000000000DB00000800000000DB0000088A
:1000B0000448854600F0E2F9004800477935000819
:1000C000C046C046380A002004488047044800471C
:1000D000FEE7FEE7FEE7FEE7FEE7FEE7AB300008DF
:1000E000B100000830B50B46014600202022012453
:1000F00009E00D46D5409D4205D31D469540491B5C
:100100002546954040191546521E002DF1DC30BDA4
:10011000F0B51FB40646002082B005464024019188
:1001200000901BE0019922460F46304600F020F86F
:10013000049A059B801A994110D31046194622460D
:1001400000F04AF9361A8F4101972246012000211A
:10015000009F00F041F938184D4100902046641E80
:100160000028DFDC019B00982946324607B0F0BD2D
:1001700010B5202A04DB0846203AD040002110BDEB
:100180000B46D340D0402024A21A91400843194680
:1001900010BD03460B439B0703D009E008C9121F9B
:1001A00008C0042AFAD203E00B780370401C491CF3
:1001B000521EF9D27047D2B201E00270401C491EB3
:1001C000FBD270470022F6E710B513460A460446F4
:1001D0001946FFF7F0FF204610BDF8B502464A4029
:1001E000D40F42004B0052085B089A4202D20246EA
:1001F000084611464A0023D0C30D4A00DDB2120E54
:10020000AD1A202D35DA49020126490AF6058A1968
:10021000002C00D0524220214F1B1146B9402A41E8
:100220001018C20D9A4221D0002C17D0012D08DCE5
:10023000DA05801AD20F8019D207DBB200F0E4F899
:10024000F8BDDA05801A012340001B06C01880188B
:100250005A428018CA0F1043490007E04908C207F4
:100260001143DA05801A80194008801800F0C4F89C
:10027000F8BD61000122511A001BF7E70122D207E5
:100280005140AAE70122D2075040A6E7024670B5C6
:100290004A40D30FDB0740002DD04A002AD0010E80
:1002A000140E000212020919400A520A8418E501CC
:1002B00004465443000A120A2E045043A41942195A
:1002C000200CC543AA18120C0125AD03521C52196B
:1002D00012047F39240400D0521C104301D4400082
:1002E000491EC2B20C06C0092018401C4008802AD2
:1002F00002D003E0002070BD40084000002900DA71
:100300000020184370BD70B502464A40D50F40002A
:100310004A00ED0740085208002814D0002A12D0E5
:10032000C40DD30D41020120C0055202490A520AF0
:10033000E41A091812187D34914201D3641C00E0BC
:100340004900002C01DA002070BD0023914201D346
:10035000891A0343400849000028F7D100290AD030
:10036000914202D10121C90705E0914201D2012148
:1003700001E00121C943E005C018401900F03CF834
:1003800070BD10B500229623114600F03DF810BD57
:10039000C20F410040020123400ADB05D207090ECB
:1003A000C0187F2901DA00207047962903DC9623C4
:1003B000591AC84001E096398840002AF4D04042DA
:1003C000704700000122D207002800DB101A002924
:1003D00000DB511A8842704710B5202A04DB014621
:1003E000203A9140002010BD914020239C1A0346E2
:1003F000E3401943904010BD002904DA401C490035
:1004000001D140084000704770B40024050C05D1AC
:100410001024000402D1002921D01124050E01D19D
:1004200000020834050F01D10001241D850F01D100
:100430008000A41C002801DB4000641C002908D0B7
:1004400020252E1B0D46F540A14000D00121294357
:10045000084301061B1B000ADB1D02D5002070BCEF
:100460007047DB05181880180029F8DA401C49008D
:10047000F5D170BC4008400070470000064C0125D3
:10048000064E05E0E36807CC2B430C3C984710343C
:10049000B442F7D3FFF710FEFC3500081C36000805
:1004A00010B5024800F0C7F910BD00003000002070
:1004B00010B50146406A826B50231A420AD1816B03
:1004C00001225202114381630168CA681205920F2A
:1004D00005D020E0006B026B0846904710BD827E7D
:1004E000002A18D10A68120715D58A685307012215
:1004F000002B09DB4B680C24A3434B60816B130278
:1005000099431143816306E0816B20231943816382
:10051000C16B1143C16300F08BF910BD10B5406A87
:10052000816B402211438163C16B04221143C1637B
:1005300000F080F910BD10B5406A00F07AF910BDE6
:10054000F8B5044600200090206881688907890F6B
:10055000012905D10168C90731D1C16809042ED428
:100560008168184A10261140012500291AD1816896
:1005700029438160154814490068FFF7B3FD00E086
:10058000401E00900028FBD100F080FD074611E0DE
:1005900000F07CFDC01B02280CD920680068C04315
:1005A000C00707D0A06B3043A063E06B2843E06333
:1005B0000120F8BD20680068C043C007E8D10020D2
:1005C000F8BD00001700008040420F001C00002012
:1005D00010B5024800F01BFB10BD000070000020A9
:1005E00010B504460068054940181421FFF77AFD4C
:1005F000800020640248E06310BD0000F8FFFDBFEA
:100600000000024030B5056C0124AC40C56B6C6045
:10061000046863604368102B036803D09960006826
:10062000C26030BD9A600068C16030BD72B6FEE73E
:1006300006490020C861064801690422114301618E
:1006400001694022114301617047000090010020C0
:1006500000200240064A0021D16106490A690223AE
:100660001A430A61486108694022104308617047D3
:10067000900100200020024010B5054B0022DA61F5
:10068000044A1369012423431361018010BD000053
:10069000900100200020024010B50B4A0020D168D4
:1006A000CB060A4904D5C86902231843C861102043
:1006B000D3685B0705D5CB6901242343CB610421B3
:1006C0000843D06010BD00000020024090010020CF
:1006D00070B5054600F0DAFC0646104C0AE0681CCE
:1006E00008D0002D04D000F0D1FC801BA84201D915
:1006F000032070BDE068C007F1D1E068800601D535
:100700002020E060E068C00602D4E068400703D51E
:10071000FFF7C2FF012070BD002070BD0020024025
:10072000F8B50025044620340095227D012A39D0F1
:100730000122227503689E68760767D4384F4E6899
:10074000BE424DD09E6A0F78BA4016439E62012386
:10075000C26A1B079A421FD0012A1DD0022A1BD051
:10076000032A19D0042A17D0052A15D0062A13D037
:10077000072A11D002688B6856697607760FB34254
:100780000AD05369DB08DB005361006842690B7AC9
:100790005B075B0F1A4342610A68102A04D0112AD2
:1007A00002D038E00220F8BD1E488368102A07D026
:1007B00001229205134383600868102803D02AE0C1
:1007C0000122D205F6E7194817490068FFF78AFCAD
:1007D0000A21484300E0401E00900028FBD11AE0A7
:1007E000986A0E78B240904398620968102901D047
:1007F000112910D10B488268102904D001218905E4
:100800008A43826007E00121C905F9E7816B202254
:10081000114381630125002020752846F8BD0000A2
:10082000011000000027014040420F001C00002082
:1008300070477047704770B5044600680168490703
:1008400002D54168490705D40168090730D54168D8
:1008500009072DD5A16BC90604D4A16B0122520250
:100860001143A163C1680C250905890F00291AD11C
:10087000A17E002917D10168090714D581684A07AC
:100880000121002A08DB4268AA434260A06B0A02E9
:1008900090430843A06306E0A06B20221043A063AE
:1008A000E06B0843E0632046FFF7C2FF2068056065
:1008B0002068016809060DD5406800060AD5A06BBE
:1008C000012109040843A063204600F0D9F82168FB
:1008D0008020086020680168C90613D54168C906F0
:1008E00010D5A16A1025012902D0C168C90707D017
:1008F000E16B02221143E16305602046FFF79AFF96
:100900002068056070BD0000F8B500260446002888
:1009100005D0A06B25462035002802D007E0012035
:10092000F8BD0020E0632875204600F0ABF8A06B0E
:100930001022C006002870DB2068816849076CD44B
:10094000A16B1301994302231943A16381688907AD
:10095000890F012905D10168C9070FD1C1680904B0
:100960000CD4C16818239943A3681943C160206857
:100970000169636889008908194301612068C168B9
:100980003D4B1940C160207E617E8003C90308434E
:10099000A17E4B031843A36A012B02D001231B0342
:1009A00000E000231843E36818432369022B09D0B1
:1009B000002318432B79E57E5B0018430123012DAA
:1009C00002D00AE00423F4E7002927D0A16B2025F8
:1009D0002943A163E16B1943E163E1690D46FF3DE2
:1009E000C23D02D0256A294308432168CD680543EA
:1009F000CD600125E16A2D07A94213D0012911D04C
:100A000002290FD003290DD004290BD0052909D0C4
:100A1000062907D0072905D010E028E001210904A4
:100A20000843DAE721684D69ED08ED004D61216862
:100A30004D69A78D7F077F0F3D434D612168C968D0
:100A40000E4D2940814207D10020E063A06B800851
:100A50008000401CA06308E0A06B02218843104383
:100A6000A063E06B1843E06301263046F8BDA06B3D
:100A70001043A063F8E700001902FEFFE7FF3F8381
:100A80007047000070B586B0054614216846FFF730
:100A900099FB1F492868884238D11E498A69401548
:100AA00002438A618A69024005924A690002024350
:100AB0004A614969002601400591102000900320F9
:100AC0000190092069460296C00600F00DFA12480E
:100AD000124C41C48020266060604000A06080000D
:100AE000E0602020666120610C48083C00F0DEF8E0
:100AF000002801D0FFF79AFD2C63022200210C2070
:100B0000656200F0E5FD0C2000F0D6FD06B070BD7A
:100B10000024014000100240080002407000002044
:100B2000F7B5044600680025806840073DD4264696
:100B30002036307D01280AD001273775607E0128D4
:100B400007D02046FFF7FCFC050002D02EE0022073
:100B5000FEBDA06B16490840FF2101310843A06388
:100B60000020E0633075216B12488862216B1248C7
:100B7000C862216B1148086321681C200860206846
:100B800041681022114341602068C1683943C16047
:100B90002168206B4031029B019A00F0B1F8206877
:100BA000816804221143816000E002252846FEBDD1
:100BB000FEF1FFFFB1040008370500081D0500081D
:100BC00070B50024014620314A78022A03D004215E
:100BD0008163012416E0026813680E25AB4313609D
:100BE000026813685B085B0013600122056C134602
:100BF000AB40C56B6B604A7000220A70416B0029E4
:100C000000D08847204670BD203040787047F0B44F
:100C1000C16B0D6801680C680422066C1346B34072
:100C20002B420DD063070BD50B689B0602D40B68D3
:100C300093430B60016C8A40C16B4A60C16A19E042
:100C40000227B74002462F4001232032002F15D043
:100C5000A70713D50C68A40604D40C680A25AC4376
:100C60000C605370036C02219940C36B59600021E2
:100C70001170816A002916D0F0BC08470827B740D8
:100C80002F4210D024070ED50C680E25AC430C6003
:100C9000046C1946A140C46B6160836353700021EA
:100CA0001170016BE6E7F0BC7047000070B50400FE
:100CB00021D002212046203005464170226811686B
:100CC0000E48A3680140606826691843E36833430F
:100CD000184363691843A3691843E3691843084339
:100CE00010602046FFF77CFC0021A16301206870A2
:100CF0002970084670BD012070BD00000FC0FFFFC5
:100D0000F8B504468C46203001780025012909D029
:100D10000126067041780027012905D007700225B9
:100D20002846F8BD0220F8BD02214170A763206863
:100D3000016849084900016061462046FFF762FCEE
:100D4000E06A00282068016802D00E22114306E004
:100D50000A22114301602068016804229143016066
:100D60002068016831430160DAE7000070B504468D
:100D700000F08CF90546601C02D004480078241865
:100D800000F084F9401BA042FAD370BD100000208F
:100D9000F8B5054623480F46017E012601290BD0F0
:100DA000012101762868204C012807D02046FFF752
:100DB0008FFC002813D030E00220F8BD2046FFF75A
:100DC00087FC002829D1FFF733FC2046FFF780FC81
:100DD0000646164801690422914301611DE0002086
:100DE000C04338606C6812E02046FFF733FC0E48C1
:100DF000FFF76EFC06460D48026902218A43026134
:100E0000002E01D03C6008E0012080022418A86870
:100E1000810268680818A042E6D8024800210176DD
:100E20003046F8BD9001002050C300000020024071
:100E300003480169802211430161002070470000CE
:100E400000200240F0B51FB407461A480024017E76
:100E500015461E46012907D0012101761648FFF7E5
:100E600037FC002803D020E0022005B0F0BD012FA0
:100E700002D0022F00D00427220128463146FFF776
:100E800077F981B2019862001018FFF7F5FB0A4864
:100E9000FFF71EFC09490A69520852000A6100283E
:100EA00003D1641CE4B2BC42E6D3024900220A76B4
:100EB000DBE700009001002050C30000002002404A
:100EC000064900200A69120607D5054A4A60054A04
:100ED0004A600969090600D50120704700200240D8
:100EE00023016745AB89EFCDF8B500230324012525
:100EF000BAE02E469E40B44632407CD00E79B6070A
:100F0000B60F012E01D0022E17D186682746B646AD
:100F10005E00B74000967646BE43B646CF68009E58
:100F2000B74076463743876046686746BE430F79C9
:100F3000FF06FF0F9F40374347600E79F643B60721
:100F40000ED0C6682746B4465E00B646B740664631
:100F5000BE43B4468F687646B74066463743C7609F
:100F60000E79B607B60F022E14D1DE08B600361879
:100F70000096366A5F07B446FE0E0F27B646B740A6
:100F80006646BE43B4460F697646B7406646374369
:100F9000009E376206682746B4465E00B646B740F4
:100FA0006646BE430F79B446BF07BF0F7646B740CB
:100FB0006646374307604E68B603B60F53D02D4FD1
:100FC000BE692E43BE61BE699F08F607F60F2A4E22
:100FD000BF00BE190096B6680F27B4469E07360FAD
:100FE000B646B7406646BE430927FF06B446B84238
:100FF00002D1002710E036E0204FB84201D101278E
:101000000AE01F4FB84201D1022705E01D4FB84248
:1010100001D1032700E005277646B74066463743EF
:10102000009EB760184E36684F689643FF0300D5A0
:101030001643154F3E607E684F689643BF0300D548
:101040001643114F7E60BE684F689643FF0200D57D
:1010500016430D4FBE60FE684F689643BF0200D531
:101060001643094AD6605B1C0A681646DE4000D06B
:101070003FE7F8BD001002400000014000040048B6
:1010800000080048000C0048000401400148806846
:10109000704700001000002070B5024640325378BF
:1010A000202B1CD11378012B19D001231370242479
:1010B0005470046825689D432560046825681E03F4
:1010C000B5432560046825680D4325600068016804
:1010D00019430160202050700020107070BD022064
:1010E00070BD70B5024640325378202B1BD1137867
:1010F000012B18D0012414702423537003681D6839
:10110000A5431D6005682B680F263602B34309020C
:101110001943296000680168214301602020507054
:101120000020107070BD022070BD7047704770B510
:1011300003689A691968D243D40508D4CC432406BD
:1011400005D4446C01252C4344642C02DC61530516
:1011500009D4CB431B0606D4436C082423434364C1
:10116000E3010468E361920509D4C943090606D482
:10117000416C02221143416411020268D161416C49
:101180000B22114201D001F0C5F870BD02689169CF
:101190001268436B002B00D018477047704700005F
:1011A00070B5040006D02546403568780026002832
:1011B00002D005E0012070BD2E70204600F050F8EE
:1011C00024206870206801684908490001600F21E7
:1011D0006068090688432168086121688A680120DF
:1011E000C00382438A60E1680129A16808D02122F6
:1011F0009202114322689160E168022902D005E061
:101200000143F7E701212268C902516021684A6859
:101210000F4B1A434A602168CA688243CA606169F9
:1012200020690843A169090208432168C860216A4E
:10123000E0690843216808602068016801221143C1
:1012400001606664202068702663AE70002070BD67
:101250000080000270477047704770477047000079
:1012600010B586B0044614216846FEF7ABFF174957
:101270002068884228D1164C61690120400401434E
:1012800061616169014003200591400200901220D4
:101290000190012002900320039004200490092073
:1012A0006946C006FFF720FEE169012040050143C1
:1012B000E161E1690022014005911146172000F02B
:1012C00007FA172000F0F8F906B010BD00540040EE
:1012D00000100240F8B50020694C00900422611C07
:1012E0006846FEF756FF68482278664D64492A70C2
:1012F000044606462C34543602274B78222A59D00D
:101300000FDC6249112A3BD006DC012A18D0022AE0
:1013100020D0032A1DD127E0122A39D0212A18D142
:101320003EE0262A78D006DC232A4FD0242A59D042
:10133000252A0ED162E0272A7DD0FF2A09D185E037
:10134000009901610020215C2A18401C517004287A
:10135000F9DB83E0009A426100200A5C2B18401CF4
:101360005A700428F9DB79E04748009902F034F814
:101370000020215C2A18401C51700428F9DB6DE024
:101380000020215C2A18401C51700428F9DB65E01C
:1013900000200A5C2B18401C5A700428F9DB5DE021
:1013A000737037700020215C2A18401C517004288B
:1013B000F9DB53E000990160F16137700020215C96
:1013C0002A18401C51700428F9DB47E0009981601D
:1013D000716237700020215C2A18401C517004286B
:1013E000F9DB3BE000994160316237700020215CFD
:1013F0002A18401C51700428F9DB2FE00099C160C5
:10140000B16237700020215C2A18401C51700428FA
:10141000F9DB23E000E00EE01B48009901F0DCFF5F
:101420000098B06037700020215C2A18401C517071
:101430000428F9DB12E00098706037700020215C0E
:101440002A18401C51700428F9DB07E0002B01D05A
:10145000012100E000210C4801F0F6FF0C4C0522B0
:10146000234608490B4800F045F80028F7D105222B
:101470000349084800F012F80028F8D1F8BD000030
:101480000000002008000020B0050020E00500203A
:1014900010270000B400002070470000F8B5034694
:1014A00040335C78202C1ED11C78012C1BD00124E9
:1014B0001C7022245C7020249C7000244464056805
:1014C0006E680127FF03BE436E6041624285418D15
:1014D00001850649C162064941631C70B91C00F0D0
:1014E0009BFE0020F8BD0220F8BD00000000FFFFB9
:1014F000D9290008FFB5054604464035687881B013
:10150000164620287ED10298002827D0002E25D00C
:10151000287801287FD001202870FFF7B7FD074603
:10152000212068702020A870002060640299616208
:1015300066856063206841680126F603B143416017
:101540000097002208212046049B01F004FB00289C
:1015500008D020684168314341603FE001204002EB
:1015600060643BE021680820C861E06802280BD174
:101570000097002208212046049B01F0ECFA002885
:10158000E7D121680820C8610121009700220904E1
:101590002046049B01F0DFFA0028DAD10DE001F0CB
:1015A00027FB0028D5D1606A216800788862606ACC
:1015B000401C6062608D401E6085608D049900282B
:1015C0003A462046EBD101F0EDFA00280BD0206816
:1015D000416831434160606C042802D0012005B0AD
:1015E000F0BD0020606421682020C86100970122BE
:1015F00031462046049B01F0AEFA0028A9D12068AC
:10160000416800E007E0314341602020687000201D
:10161000A8702870E3E70220E1E700000248816833
:1016200002788918816070471000002010B50648C4
:101630000168102211430160002000F007F800F05B
:1016400027F8002010BD00000020024070B50446BD
:101650000D4D7D202978C000FEF744FD01460B4862
:101660000068FEF73FFD00F041FB002809D1042C83
:1016700007D200222146401E00F02AF800206C60AC
:1016800070BD012070BD0000100000201C00002073
:1016900008B50848816901221143816181691140BF
:1016A0000091C26901040A43C261C0690840009008
:1016B00008BD000000100240002805DBC106C90E6D
:1016C00001208840014908607047000000E100E007
:1016D00010B501F0D5FE10BDBFF34F8F044903488C
:1016E000C860BFF34F8F00BFFDE700000400FA059C
:1016F00000ED00E0F8B505460068354CC00352D552
:10170000E0690026C00007D4E16920040143E161DB
:10171000E1690140012600912E480168C90510D4F5
:101720000168821511430160FFF7B0FC074604E031
:10173000FFF7ACFCC01B642824D826480068C0050D
:10174000F6D5206A03273F02384020D06968394027
:1017500081421CD0206A226AB843012109040A434D
:101760002262226A8A4322622062C0070FD0FFF7FA
:101770008DFC009008E0FFF789FC0099411A16489B
:10178000814201D90320F8BD206A8007F3D5206A81
:101790006968B84308432062002E04D0E169012043
:1017A00000078143E1612878C00705D0206BA96854
:1017B00080088000084320632878800605D5206BC8
:1017C00010218843E968084320630020F8BD000029
:1017D000001002400070004088130000F8B50F466A
:1017E000060059D03A4D2868C007C00FB84209D248
:1017F000286840084000384328602868C007C00FA8
:10180000B84249D13068334C81070CD5400704D524
:10181000606807210902084360606068F02188431E
:10182000B168084360603078C00726D0706801282E
:101830000ED0216802280ED0890700292CDA6168B1
:101840008908890001436160FFF720FC00900DE0EA
:1018500021688903F1E78901EFE7FFF717FC009999
:10186000411A1D48814201D90320F8BD60680C214E
:101870000840716889008842EFD12868C007C00F0E
:10188000B8420BD9286840084000384328602868CF
:10189000C007C00FB84201D00120F8BD3078400722
:1018A00006D56068072109028843F1680843606033
:1018B00000F018F86168094A0906090F515CC84030
:1018C000074908600020FFF7C1FE0020F8BD0000B6
:1018D000002002400010024088130000EA35000892
:1018E0001C00002010B514A30FCB88B06C460FC4A9
:1018F00015A30FCB0FC4184A51680C200B460340A8
:101900001648042B16D0082B14D18B021B0F6C46E3
:10191000E45CD26A04AB1207120F9A5CC90305D5C6
:1019200000231946FEF7F4FB214601E020460C494E
:1019300001F08DFD08B010BD02030405060708097B
:101940000A0B0C0D0E0F1010010203040506070808
:10195000090A0B0C0D0E0F100010024000127A0045
:1019600000093D00FEB5040070D02078DC4DC007B2
:101970004AD068680007800F012807D06868000710
:10198000800F022809D16868C00306D52868800343
:101990003AD560680028E7D036E06168012914D0A4
:1019A00001208004002901D0052914D02A680121D2
:1019B00009048A432A6029688143296060680028F5
:1019C00016D0FFF763FB06460EE0286801210904E4
:1019D00008432860F2E7296801432960F5E7FFF72B
:1019E00055FB801B64286ED828688003F7D50BE070
:1019F000FFF74CFB064604E0FFF748FB801B64281A
:101A0000F1D828688003F7D42078012680070028C1
:101A10003CDA68680007800F07D068680007800F0D
:101A2000022809D16868C00306D42868800716D543
:101A3000E06801280AD112E0E0680028286816D082
:101A400030432860FFF722FB074605E043E1FFF73C
:101A50001DFBC01B0228C6D828688007F7D5286858
:101A6000F82188432169C900084328600EE0400836
:101A700040002860FFF70AFB074604E0FFF706FB7B
:101A8000C01B0228AFD828688007F7D42078000749
:101A900022D5E0690028686A0ED030436862FFF7FB
:101AA000F5FA074604E0FFF7F1FAC01B02289AD8BE
:101AB000686A8007F7D50FE0400840006862FFF7CA
:101AC000E5FA074605E09DE0FFF7E0FAC01B0228B3
:101AD00089D8686A8007F7D420780427400700284F
:101AE00060DA00200190E869C00008D4E969B8060E
:101AF0000143E961E96901400120009101907948C1
:101B00000168C90511D40168821511430160FFF70E
:101B1000BDFA009005E0FFF7B9FA0099401A642871
:101B200070D870480068C005F5D5A06801280AD0B3
:101B3000002801D0052810D0286A400840002862FB
:101B4000286AB84301E0286A30432862A068002868
:101B500012D0FFF79BFA00900AE0286A3843286207
:101B6000F1E7FFF793FA0099411A5F48814249D89B
:101B7000286A8007F5D50DE0FFF788FA009006E0A7
:101B8000FFF784FA0099411A574881423AD8286AE7
:101B90008007F5D40198002804D0E96901200007E6
:101BA0008143E9612078C00635D5606901280CD0F1
:101BB000401D686B23D038436863686B4008400061
:101BC0006863FFF763FA064622E0686B3843686390
:101BD000686B30436863FFF759FA064604E0FFF785
:101BE00055FA801B02285BD8686B8007F7D5686BB5
:101BF000F8218843A169C900084368630BE0B84332
:101C00006863F4E74CE0FFF741FA801B022847D8ED
:101C1000686B8007F7D4206A00285ED069680907DE
:101C2000890F022942D0012636060228286805D0ED
:101C3000B0432860FFF72AFA044633E0B043286037
:101C4000FFF724FA074604E0FFF720FAC01B02283A
:101C500026D828688001F7D4E86AE16A0009000103
:101C60000843E862616AA06A084369683D22120479
:101C7000914308436860286830432860FFF706FAFC
:101C8000044604E0FFF702FA001B022808D828687F
:101C90008001F7D521E0FFF7F9F9001B022801D9EF
:101CA0000320FEBD28688001F5D416E00128F8D095
:101CB0006868E96A01221204636A02409A420AD102
:101CC0000907E26A090F914205D10F2189040840F2
:101CD000A16A884201D00120FEBD0020FEBD0000A7
:101CE000001002400070004088130000094910B540
:101CF000401E884201D9012010BD074C60610321BC
:101D0000081F01F0BDFB0020A0610720206100201A
:101D100010BD0000FFFFFF0000E000E070477047CB
:101D2000F0B502462032137F012B1BD00126167717
:101D30000223537705686B68AC687027BB430F6854
:101D40001F436F600068084B984202D0074B9842CF
:101D500004D1802349689C43214381605677002049
:101D60001077F0BD0220F0BD002C014000040040BF
:101D700070B5040005D025462035687F002802D0C4
:101D800006E0012070BD00202877204600F014F8FE
:101D900002206877211D206801F090F9012040346D
:101DA000A071A877E87720706070A070E070207153
:101DB00060716877002070BD08B5006809498842E5
:101DC0000FD10948C26981150A43C261C069002266
:101DD0000840009011461320FFF77AFC1320FFF70C
:101DE0006BFC08BD0020004000100240704770B539
:101DF0000446006801690025C9438907002915DBED
:101E0000C168C943890711D4E91E01610120207707
:101E1000206880698007204602D0FFF7E7FF04E0D2
:101E200000F0BEF8204600F05BF9257720680169D4
:101E3000C943490717D4C168C943490713D40421CA
:101E4000C943016102202077206880698005800FE6
:101E5000204602D0FFF7CAFF04E000F0A1F82046B8
:101E600000F03EF9257720680169C943090716D4B7
:101E7000C168C943090712D40821C943016104207C
:101E800020772068C0698007204602D0FFF7AEFFA8
:101E900004E000F085F8204600F022F9257720685C
:101EA0000169C943C90617D4C168C943C90613D417
:101EB0001021C9430161082020772068C06980058E
:101EC000800F204602D0FFF791FF04E000F068F891
:101ED000204600F005F9257720680169C943C90744
:101EE00008D1C168C943C90704D1891E01612046D0
:101EF00000F046F920680169C943090609D4C168A0
:101F0000C943090605D48021C94301612046FFF772
:101F100005FF20680169C943490609D4C168C9435E
:101F2000490605D44021C9430161204600F029F942
:101F300020680169C943890609D4C168C943890673
:101F400005D42021C94301612046FFF7E8FE70BD9A
:101F500010B586B0044614216846FEF733F90E49E1
:101F60002068884215D10D48426949130A434261ED
:101F7000406908400590C020009002200190002098
:101F8000029003900120049009206946C006FEF7E4
:101F9000ABFF06B010BD000000040040001002407E
:101FA0007047F8B5064604462036307F00270D46B8
:101FB00001280ED001203077002A0CD0042A1BD033
:101FC000082A2FD00C2A3ED001270020307738462F
:101FD000F8BD0220F8BD206801F0BAF820688169D8
:101FE0000822114381612068826904218A43826149
:101FF000206881692A6912E0206801F0E5F820680C
:1020000082690121C9020A43826120688169012233
:10201000920291438161206881692A691202114309
:102020008161D2E7206801F009F92068C1690822BE
:102030001143C1612068C26904218A43C2612068DA
:10204000C1692A6912E0206801F034F92068C16989
:102050000122D2021143C1612068C26901218902B3
:102060008A43C2612068C1692A6912021143C161B1
:10207000ABE770B5040005D025462035687F002801
:1020800002D006E0012070BD00202877204600F035
:1020900015F802206877211D206801F00FF8012053
:1020A0004034A071A877E87720706070A070E0706D
:1020B000207160716877002070BD000008B500686D
:1020C0000549884207D10548C26902210A43C26115
:1020D000C0690840009008BD0004004000100240A4
:1020E0007047000010B504460222203000290AD0B3
:1020F00004290DD02046403008290ED04378012B0A
:1021000010D0012010BD837F012BFAD182770AE025
:10211000C37F012BF5D1C27705E00378012BF0D105
:10212000027000E042700122206801F003F81049BB
:102130002068884205D00F4A904202D00E4A904251
:1021400004D1426C0123DB031A434264206801225C
:10215000884202D00949884204D181684907490F61
:10216000062902D0016811430160002010BD000063
:10217000002C0140004401400048014000040040A0
:1021800070477047FEE7000010B506480068806998
:102190004005400F034802D0FEF7C9FF10BDFEF70F
:1021A000F5FF10BDB400002010B5406A0021826B1D
:1021B000002A00D05163C26B002A00D0516300F0A6
:1021C000B7FC10BDF0B504460022CE0740342823EA
:1021D000B025002E05D0667842221F46B74300D0B6
:1021E000F2228E0705D5442664783243A34300D0FB
:1021F0002A43CB0B01D0B8231A43102908D0202939
:1022000007D0402905D00068016891430160F0BD06
:1022100090210A43F7E7000010B5144C436B0022ED
:10222000A34202D0124CA3420ED1CB0B00D0B82255
:10223000102904D0202904D0402903D011E0902196
:1022400000E060210A430CE0CB0B00D0B822CB07A2
:1022500001D0F2231A438B0701D5F4231A43202916
:10226000F0D0006801681143016010BDB927000873
:10227000C528000801688A69D243920701D4002268
:102280008A6200688169C943C90703D08169012254
:10229000114381617047F8B50546044640356878BA
:1022A00028218143206804D00821C16100202870C2
:1022B000F8BD8169C903CF0F8169FE230E0C8168C7
:1022C0001E408A05C168920D19408C46E1680229BA
:1022D00016D10621D3090E400B409E420FD1A16CAE
:1022E000491CA164A16C0229E2D10021A164082348
:1022F000C361297039462046FEF718FFF8BD6646CF
:102300000121C9032046FFF75DFF002028703246F7
:10231000F0E70000F8B50546044640356878002629
:10232000AE70334AE2626685626C0A4362642828B2
:102330001ED029281CD02A281AD02E492046FFF763
:1023400041FF6878602801D0202068706663206BA8
:10235000A16B294F002903D0112812D0212810D0B9
:10236000E16B002925D0122827D0222825D020E093
:1023700003212046FFF726FF282068701F4860636E
:10238000E5E720680168490404D501680122920349
:1023900091430160A06BFEF737FC012809D0A06BC8
:1023A00047632E70A06BFEF70BFC002804D0A06BD7
:1023B0001AE0204600F0BCFBF8BD20680168090463
:1023C00004D501680122D20391430160E06BFEF75E
:1023D0001BFC0128EDD0E06B47632E70E06BFEF72D
:1023E000EFFB0028E8D0E06B416B8847F8BD0000A8
:1023F0000000FFFF03800000A9210008D929000880
:1024000070B504461648E062002525632022204668
:102410004030064642708570C8436563400712D459
:102420002068406A616A0870606A401C6062208DA2
:10243000002808D0401E2085608D401E6085606C9D
:1024400004210843606407492046FFF7BBFE21686A
:102450001020C86135702046FEF7FCFE70BD0000FC
:102460000000FFFF03800000F8B5054600910068FA
:102470002027C7612C4640346078212803D060783B
:10248000222806D00BE001212846FFF79BFE1120F1
:1024900004E002212846FFF795FE122028632868F1
:1024A0004168254A11404160002624486E63E86275
:1024B0000098C043C10606D42A681021D161696C16
:1024C0000422114369646178602905D1400703D46F
:1024D0002868406AC0B200902846FFF7CBFE686CBF
:1024E0006178602901D0002804D0696C2846FFF784
:1024F00011FFF8BD607821280DD060782228F8D12E
:1025000067702E63A078A67040282670284610D0E9
:10251000FEF7A1FEF8BD67702E63A078A670402874
:102520002670284602D0FEF797FEF8BDFEF796FE0D
:10253000F8BDFEF792FEF8BD00E800FE0000FFFFC8
:1025400070B50025064640360446B57071782020E7
:10255000212970700BD01220206302212046656370
:10256000FFF730FE35702046FEF775FE70BD112076
:102570002063012120466563FFF724FE3570204665
:10258000FEF76AFE70BD0000F8B5026804461668E2
:102590000546403568780F462021D161212806D0B4
:1025A000292804D0222808D02A2806D00CE0424945
:1025B0002046FFF707FE212005E03F492046491C41
:1025C000FFF700FE22202063206841680122D20329
:1025D0001143416020684168384A114041602046FB
:1025E000FFF748FEF043410407D420680168012248
:1025F000920391430160A06B08E000040BD42068B3
:1026000002680121C9038A430260E06B002802D0FE
:10261000006840686085F8434007042100280FDB0C
:1026200020688F43406A626A1070606A401C606272
:10263000208D002804D0401E2085608D401E6085BE
:10264000608D002802D0606C084360640026AE7084
:102650006663606C00280BD0616C2046FFF75AFE61
:102660006878282803D139462046FFF7C9FEF8BD0F
:10267000E06A134FB8420BD0204600F023F8E7621F
:102680002020687026632E702046FEF7E3FDF8BD1B
:102690006878222807D02020687026632E70204694
:1026A000FEF7FAFEF8BD2020687026632E702046E3
:1026B000FEF710FEF8BD00000180000000E800FEFB
:1026C0000000FFFF70B505460068016800262C4633
:1026D0004034A670C9434A0403D40168012292031E
:1026E00004E0090404D401680122D203914301608B
:1026F0006178282029290ED061782A290AD16070B2
:102700002220286302212846FFF75CFD2670284618
:10271000FEF7E0FD70BD607021202863012128468E
:10272000FFF750FD26702846FEF7B6FE70BD00008C
:10273000F7B5044600680F468169C943C90636D417
:102740004168890104D44168012292031143416028
:1027500000262546403520688069C043800612D592
:10276000781CF8D0FEF792FC0299401AB84201D8C2
:10277000002FF0D1616C2020014361646870AE705D
:102780002E700120FEBD21681020C861206820271E
:10279000C7612046FFF76EFD20684168054A114079
:1027A0004160606C0421084360646F70E7E70020BB
:1027B000FEBD000000E800FEF8B5054604464035C1
:1027C0002878012817D001202870CB43DE06D0439B
:1027D000002E12DBC20610D421681020C861606C84
:1027E00004210843606420212046FFF715FD2046A0
:1027F000FFF740FD5FE00220F8BD304A304E1F0673
:1028000037D4470635D420680168402399430160D6
:10281000608D00282068406828D08105608D890D72
:10282000FF2803D9FF2020859B0408E0608D2085C8
:10283000E06A904201D0E36A01E001235B060020D8
:102840000090208DC2B2204600F05EF9608D218D8F
:10285000401A6085687822282068016802D03143D8
:10286000016028E00122D2031143F9E7800117D566
:1028700006E05F0618D4470616D4608D002804D001
:1028800040212046FFF746FD15E020684168890198
:1028900011D4E16A914203D14168314341600AE0B9
:1028A0002046FFF74DFE06E09A0604D4800602D4C7
:1028B0002046FFF7D9FD00202870F8BD0000FFFF7B
:1028C00000400000F7B5C76A82B0044600202646E3
:1028D000403601903078012823D0012030700398D1
:1028E000D543C04300908006002805DBA80603D42A
:1028F00020460399FFF748FE0098C0065FD4E8061B
:102900005DD469041020002901DA290454D4E16B54
:1029100000290BD02A0409D409684968002903D08A
:1029200004E0022005B0F0BD01210191A16B002956
:1029300005D06A0403D409684968002902D00199C6
:1029400000291BD07178282908D1012149068F421E
:1029500004D120460399FFF753FD39E07178292906
:102960002AD101210904CF4226D02168C86120461E
:10297000FFF780FC2046FFF7A5FE29E02168C8612B
:10298000606C0421084360647078002F02D08905D0
:102990008F421DD1212806D0292804D0222804D016
:1029A0002A2802D003E0212000E022202063616C6D
:1029B0002046FFF7AFFC0BE02168C86108E00098F3
:1029C000000705D4280703D420460399FFF763FCCA
:1029D00000203070A6E70000FEB5C56A0446064632
:1029E000403601913078012828D0012030700198BC
:1029F000D743C04300908006002805DBB80603D407
:102A000020460199FFF7C0FD00983D493D4AC006A8
:102A100030D4F8062ED4638D1020002B10D02168FE
:102A2000C861606C042108436064002D01D09542A8
:102A300062D1616C2046FFF76DFC5DE00220FEBDB7
:102A40007278282A08D101225206954204D12046E4
:102A50000199FFF7D5FC4FE07278292A07D18D4202
:102A600005D02168C8612046FFF704FC41E02168D9
:102A7000C86141E00098400717D4780715D4608DED
:102A800000280CD02068406A626A1070606A401C9E
:102A90006062208D401E2085608D401E6085608DA7
:102AA000002829D18D4224D126E00098000706D4C1
:102AB000380704D420460199FFF7EDFB1CE000988D
:102AC000800719D4B80717D4608D00280DD0606A2C
:102AD000216800788862606A401C6062608D401ED8
:102AE0006085208D401E208506E0954201D0002D96
:102AF00002D12046FFF7E6FD00203070FEBD000049
:102B00000000FFFF00000001F0B50668059C756835
:102B1000064F600D384385438805800D1104084336
:102B20001843204305437560F0BD0000FF63FF03B9
:102B300010B5014640314B780022602B04D002636F
:102B40000A70FEF72BFB10BD20234B7002630A7046
:102B5000FEF7EBFA10BDF8B51D4617460E460446C3
:102B600009E0681C07D0FEF791FA0699401AA842BE
:102B70000BD8002D09D020688169304688430FD0DA
:102B80000020B842EDD00020F8BD616C2020014348
:102B90006164403460700020A07020700120F8BD96
:102BA0000120EEE770B516460D4604460FE03246AA
:102BB00029462046FFF7BCFD002801D0012070BD4A
:102BC000FEF764FA801BA84208D8002D06D02068C2
:102BD0008069C0438006EAD4002070BD616C20206B
:102BE00001436164403460700020A0702070E5E70C
:102BF00070B516460D46044611E032462946204679
:102C0000FFF796FD002801D0012070BD681C06D09A
:102C1000FEF73CFA801BA84208D8002D06D0206899
:102C20008069C0438007E8D4002070BD616C20201B
:102C300001436164403460700020A0702070E3E7BD
:102C40003EB500211748009101910291144A41605C
:102C5000026003468160012204240C3316C301760E
:102C600041768176FF23C176C233C3610346016298
:102C7000203319718262FDF747FE002801D0FDF76D
:102C8000D5FC0120000301900720029000946946C2
:102C90000448FDF745FD002801D0FDF7C7FC3EBD07
:102CA000002401403000002008B508484169012295
:102CB00011434161406910400022009011460920F3
:102CC000FEF706FD0920FEF7F7FC08BD00100240E4
:102CD00008B505484269012149040A434261406937
:102CE0000840009008BD00000010024010B51448D4
:102CF0001249016013494160162181600121C160C0
:102D00000021016141618161C1610162FEF748FA00
:102D1000002801D0FDF78AFC00210948FEF7BCF924
:102D2000002801D0FDF782FC00210548FEF7D9F903
:102D3000002801D0FDF77AFC10BD000000540040CF
:102D4000B40000200E09002010B50A4808490160AF
:102D50002F21416000218160074A0161C2608161C9
:102D6000FFF706F8002801D0FDF760FC10BD000059
:102D700000200040480100208713000010B58AB0F1
:102D8000002407941C2168460894FDF71BFA1A4991
:102D90001A4812C00460846019490461416008380F
:102DA000FFF767F9002801D0FDF740FC079407A959
:102DB00012480894FEF7B4FF002801D0FDF736FC56
:102DC00060200090019402940022694604940B480C
:102DD000FFF7E7F8002801D0FDF728FC0422694638
:102DE0000648FFF7DEF8002801D0FDF71FFC034876
:102DF000FFF7AEF80AB010BD00040040000100204B
:102E0000E703000010B51449124A0A60134A4A60E9
:102E100088600120C860C0030861002048618861A3
:102E2000C86108620846FEF7BBF9002801D0FDF72B
:102E3000FDFB00210848FEF72FF9002801D0FDF71F
:102E4000F5FB00210448FEF74CF9002801D0FDF7FE
:102E5000EDFB10BD00540040B40000200E0900201E
:102E600008B5002568460570457001268670C67055
:102E7000604C00F037FB01216846002701703026C6
:102E8000384600F06DFB2070761E7F1CB6B2641CC5
:102E9000BFB2002EF4D100BF564C20782646203613
:102EA00001281CD00120207004206070524860600E
:102EB0003F200006E560A060FA2020824F48608233
:102EC0004F486561A06125624E486562E0614E48E9
:102ED000A062357322460021684600F060FB454839
:102EE000A168543800F078FA424F6169543F796321
:102EF000A169B963218A3985618A7985E169396077
:102F0000616AB960216A7960A16AF96061683961B2
:102F1000317B384600F098FA00213C48FFF7E2F890
:102F200004213A48FFF7DEF8384801684D6300682D
:102F30008563012236493748FDF7F2FD6078FFF7D7
:102F400061FF0A20FDF712FF052233493348FEF7DF
:102F5000A5FA3C4627480178022902D0002908D06A
:102F60000EE001210170234A0021684600F017FBA2
:102F700006E0204A0021684600F011FBFEF7ACFB9A
:102F8000208DFDF7FEF90546608DFDF7FAF929461B
:102F9000FDF774F906461E480088FDF7F2F9294648
:102FA000FDF76CF9676B05463946A06BFDF766F9CE
:102FB0002946FDF76BF93146FDF7A5F93946FDF7CE
:102FC0000CF90146E0620B480022543800F0A2F9E7
:102FD000606AFDF7DDF901B20648543800F012FAD4
:102FE00001220B490B48FDF79BFD0520FDF7BEFEB6
:102FF000B0E70000040600200000B442B80B000057
:10300000000034430000204100004842000100203D
:10301000200000203000002000000020B40000202C
:10302000FEE77047704710B5FEF7F8FA10BD30B5EF
:1030300095B030216846FDF7C5F800240F941220A2
:1030400000900D94012012940390059010200E948E
:1030500010941394049006900520C0040C9402254B
:103060000A901194089509940B946846FEF77AFC2F
:10307000002801D072B6FEE707200C900E940121C3
:103080000D950F940CA8FEF7A9FB002801D072B68D
:10309000FEE720201090139410A8FEF72BFB0028C9
:1030A00001D072B6FEE715B030BD704710B50248CA
:1030B000FEF79DFE10BD00004801002070B50268BB
:1030C000174B184E984201D0B04203D17024A2434E
:1030D0004C682243144C154D984208D0B04206D09B
:1030E000134EB04203D0A04201D0A84204D103261F
:1030F0003602B243CE6832438026B2434E69324331
:1031000002608A68C2620A688262984203D0A04262
:1031100001D0A84201D1096901630121416170BD5B
:10312000002C0140000400400044014000480140E0
:103130000020004010B5CB06DB0E0121046A994047
:103140008C430462016A9A401143016210BD000081
:10315000F0B5026A520852000262056A4368826949
:103160007024A24392080C689200144302229543F3
:103170008A68134E2A43114DA84204D0B04202D0AF
:10318000104FB84206D10827BA43CF68174304222C
:1031900097433A46A84204D0B04202D0094DA84213
:1031A00006D103252D02AB434D691D438B692B438B
:1031B00043608461496841630262F0BD002C0140B4
:1031C000004401400048014070B5026A10239A4350
:1031D0000262046A4368826973252D02AA430D685E
:1031E0002D021543202294438A6812012243104C79
:1031F000A04208D11446CA688026B4431201224373
:103200004024A24305E00B4CA04202D00A4CA0424D
:1032100008D10324A402A3434C69A4001C438B6976
:103220009B0023434360856149688163026270BDEE
:10323000002C0140004401400048014070B5026A82
:10324000FF2301339A430262046A4368C26970250E
:10325000AA4392080D68920015430122520294433A
:103260008A6812022243104CA04207D1C414A24320
:10327000CC68240222430615B24305E00B4CA04261
:1032800002D00B4CA04208D103242403A3434C6971
:1032900024011C438B691B0123434360C5614968BA
:1032A000C163026270BD0000002C01400044014077
:1032B0000048014030B5026A01231B039A430262B1
:1032C000056A4268C36973242402A3430C6824027C
:1032D0001C4301235B039D438B681B032B430A4D57
:1032E000A84205D0094DA84202D0094DA84205D1F7
:1032F0000125AD03AA434D69AD012A434260C46173
:1033000049680164036230BD002C01400044014063
:1033100000480140FEB515460A46044601691046BC
:10332000FCF7ACFF074628466169FCF7A7FF019050
:103330003846216AFCF7A2FF009027623946A0694F
:10334000FCF74BFF224E234DA061B04201DDA66188
:1033500002E0A84200D9A561E0690199FCF73DFFB0
:1033600031460126F607E061884201DDE16102E0B5
:10337000A84200D9E561E0680099FCF787FF019059
:10338000E1696068FCF782FF0090A169A068FCF722
:103390007DFF054639462068FCF778FF2946FCF793
:1033A0001CFF0099FCF719FF0199FCF716FF6062FA
:1033B000216DFDF707F8206D08D37040616AFDF7B5
:1033C00001F801D3606AFEBD206D70406062FEBDF1
:1033D0000000FA430000FAC310B504467F20C00580
:1033E0000A46814201DD024604E0FF20C005C242D8
:1033F00000D3002202491046FCF748FF206510BDAB
:1034000000007A4410B52030037F0E480024026883
:10341000002B13D07D23DB00002906DB5463994287
:1034200000DD19460068816310BD94637D22D200DF
:10343000D14200DB4B420068436310BD94630068D7
:10344000446310BD00010020203001777047F8B5BB
:10345000040C8BB2264682B25E430D0C1046370C2C
:103460005843360480190021794116466E43370CC3
:1034700036048019794126466E438919F8BD00004B
:103480008307FF22DB0E9A408907090E9940002826
:1034900008DB830809489B001B1818689043084301
:1034A000186070470007000F0838830804489B0025
:1034B0001B18D86990430843D861704700E400E0C6
:1034C00000ED00E002E008C8121F08C1002AFAD18E
:1034D00070477047002001E001C1121F002AFBD194
:1034E0007047000010B50122920202490248FCF721
:1034F00050FE10BD007C0008B0010020F0B585B082
:103500000025134C0120134E039500950194029061
:10351000FDF7D6FC002817D10F493420C86003A955
:103520006846FDF735FC002810D00BE078190CC870
:1035300021460320FDF786FC002803D10834083516
:10354000B442F3D9FDF774FC05B0F0BD034FEDE7CD
:10355000007C0008FF7F000800200240B00100202E
:103560000149085C70470000B0010020014A115475
:1035700070470000B0010020FEF758F8FFF757FD34
:10358000FFF7A6FBFFF790FBFFF75AFBFFF7AEFB39
:10359000FFF7F4FBFFF7D8FBFFF762FCFEE7F7B598
:1035A000044600780D46002803D1FFF79BFF012059
:1035B0002070AFB2029E302531783846761CFFF776
:1035C000D5FF6D1E7F1CADB2BFB2002DF4D1A07827
:1035D000002806D0FFF792FF002060700120E07005
:1035E00001E0012060700298FEBD000000000000B4
:1035F0000000010203040607080900001C36000849
:103600000000002020000000C43400083C36000800
:1036100020000020180A0000D43400080000000038
:103620000000000000000000000000000100000099
:0C363000040000000000000000127A00FE
:04000005080000B13E
:00000001FF
